:020000040000FA
:100000000C9462000C948A000C948A000C948A0070
:100010000C948A000C948A000C948A000C948A0038
:100020000C948A000C948A000C948A000C948A091F
:100030000C948A000C948A000C948A000C948A0018
:100040000C9421080C948A000C94EF070C94C907B7
:100050000C948A000C948A000C948A000C948A00F8
:100060000C946B080C948A00000000002400270008
:100070002A0000000000250028002B0000000000DE
:1000800023002600290004040404040404040202DA
:100090000202020203030303030301020408102007
:1000A0004080010204081020010204081020000012
:1000B0000008000201000003040700000000000027
:1000C0000000460A11241FBECFEFD8E0DEBFCDBF2F
:1000D00011E0A0E0B1E0EEEEFBE102C005900D9270
:1000E000A634B107D9F723E0A6E4B1E001C01D9220
:1000F000AD30B207E1F710E0C2E6D0E004C02197CE
:10010000FE010E94EA0DC136D107C9F70E940A0B11
:100110000C94F50D0C940000AF92BF92CF92DF9239
:10012000EF92FF920F931F93CF93DF936C017B01AC
:100130008B01040F151FEB015E01AE18BF08C0173D
:10014000D10759F06991D601ED91FC910190F081B0
:10015000E02DC6010995892B79F7C501DF91CF9173
:100160001F910F91FF90EF90DF90CF90BF90AF90D5
:100170000895FC01538D448D252F30E0842F90E0AD
:10018000821B930B541710F0CF9608950197089592
:10019000FC01918D828D981761F0A28DAE0FBF2F5B
:1001A000B11D5D968C91928D9F5F9F73928F90E0B1
:1001B00008958FEF9FEF0895FC01918D828D981720
:1001C00031F0828DE80FF11D858D90E008958FEF5D
:1001D0009FEF0895FC01918D228D892F90E0805C26
:1001E0009F4F821B91098F739927089580E292E0B7
:1001F0000E94EA0021E0892B09F420E0822F089573
:1002000080E090E0892B29F00E94F60081110C9487
:1002100000000895FC01A48DA80FB92FB11DA35AA9
:10022000BF4F2C91848D90E001968F739927848F16
:10023000A689B7892C93A089B1898C918370806439
:100240008C93938D848D981306C00288F389E02DDA
:1002500080818F7D80830895EF92FF920F931F938B
:10026000CF93DF93EC0181E0888F9B8D8C8D981369
:100270001AC0E889F989808185FF15C09FB7F89475
:10028000EE89FF896083E889F989808183708064C1
:1002900080839FBF81E090E0DF91CF911F910F910C
:1002A000FF90EF900895F62E0B8D10E00F5F1F4F1B
:1002B0000F731127E02E8C8D8E110CC00FB607FC2A
:1002C000FACFE889F989808185FFF5CFCE010E94B8
:1002D0000A01F1CFEB8DEC0FFD2FF11DE35AFF4F1B
:1002E000F0829FB7F8940B8FEA89FB898081806246
:1002F000CFCFCF93DF93EC01888D8823B9F0AA8903
:10030000BB89E889F9898C9185FD03C0808186FDD0
:100310000DC00FB607FCF7CF8C9185FFF2CF80811F
:1003200085FFEDCFCE010E940A01E9CFDF91CF9189
:100330000895833081F028F4813099F08230A9F05B
:1003400008958730A9F08830C9F08430B1F48091E5
:1003500080008F7D03C0809180008F778093800024
:10036000089584B58F7784BD089584B58F7DFBCFC4
:100370008091B0008F778093B00008958091B00095
:100380008F7DF9CF1F93CF93DF93282F30E0F901B2
:10039000E255FF4F8491F901E656FF4FD491F901E0
:1003A000EA57FF4FC491CC23A9F0162F81110E9468
:1003B0009901EC2FF0E0EE0FFF1FEE58FF4FA591D3
:1003C000B4918FB7F894EC91111108C0D095DE2349
:1003D000DC938FBFDF91CF911F910895DE2BF8CF73
:1003E0003FB7F8948091020290910302A091040219
:1003F000B091050226B5A89B05C02F3F19F00196C4
:10040000A11DB11D3FBFBA2FA92F982F8827BC016E
:10041000CD01620F711D811D911D42E0660F771F96
:10042000881F991F4A95D1F708958F929F92AF9296
:10043000BF92CF92DF92EF92FF924B015C010E943C
:10044000F0016B017C010E94F0016C197D098E099D
:100450009F09683E734081059105A8F321E0821A47
:100460009108A108B10888EEC80E83E0D81EE11CEF
:10047000F11C81149104A104B10429F7FF90EF90BD
:10048000DF90CF90BF90AF909F908F90089521E024
:1004900001C0220F6A95EAF7DC011C962C931C9789
:1004A0001A965C934E931997ED91FC910484F5850F
:1004B000E02D60E0099408950895DC01ED91FC9130
:1004C0000684F785E02D41E0099581E090E00895EC
:1004D000DC01ED91FC910684F785E02D40E0099464
:1004E000CF93DF93CDB7DEB728970FB6F894DEBF72
:1004F0000FBECDBF409106015091070160910801E8
:10050000709109014D835E836F83788740910A0162
:1005100050910B0160910C0170910D0149835A8338
:100520006B837C832091FB02821710F08FEF820F88
:1005300090E03091FC028C0F9D1FFC01303181F462
:10054000243071F46181606884EF92E028960FB6E0
:10055000F894DEBF0FBECDBFDF91CF910C9468023F
:100560006581F1CF61E00E9468028BE39FE1019712
:10057000F1F708950F931F93CF93DF93EC0142306F
:1005800018F08C8188608C834F836887222329F040
:10059000413019F48C8184608C8364E670E080E0E3
:1005A00090E00E9415026C8164FD57C0E881F981DA
:1005B0000684F785E02D42E063E0CE0109958BE4E7
:1005C00096E40197F1F7E881F9810684F785E02D3B
:1005D00042E063E0CE01099503E512E0C80101970E
:1005E000F1F7E881F9810684F785E02D42E063E0C8
:1005F000CE010995C8010197F1F7E881F9810684D8
:10060000F785E02D42E062E0CE010995C80101972F
:10061000F1F76C816062CE010E9468028BEE90E07F
:100620000197F1F784E08D836CE0CE010E946802AF
:10063000CE010E94B20282E08E8366E0CE010E946B
:100640006802E881F9810484F585E02D6FEFCE0121
:10065000DF91CF911F910F9109946062CE010E94AA
:1006600068028BE496E40197F1F76C816062CE0139
:100670000E94680203E512E0C8010197F1F76C815E
:100680006062CE010E946802C1CF08950895089566
:1006900020916801260F3327331F21323105ECF4F6
:1006A0002091D901FC0190E080E0243069F082E0E3
:1006B0000895A09168012191AC01485B5E4FA40FA1
:1006C000B52FB11D2C930196861798F38091680180
:1006D000680F6093680180E0089581E008951092AA
:1006E000D90181E08093D8011092D30161E082E1C9
:1006F0000E94C20161E083E10E94C201E9EBF0E0E7
:1007000080818E7F808380818D7F808388E4809349
:10071000B80085E48093BC000895CF93DF9391E007
:10072000909347018823B9F0C091B800D091BA00E6
:100730008091BC008A7B8093BC0060E082E10E94D3
:10074000C20160E083E10E94C2010E946F03D09366
:10075000BA00C093B800DF91CF9108950895E09159
:10076000E0018091DF01E81730F4F0E0EF51FE4F37
:10077000808190E008958FEF9FEF08959091E001C0
:100780008091DF012FEF3FEF981748F4E92FF0E059
:10079000EF51FE4F208130E09F5F9093E001C9014F
:1007A00008958091DF019091E001891B990B0895D4
:1007B000CF92DF92EF92FF920F931F93CF93DF932D
:1007C0007C01CB018A0120918B01222389F0EB016E
:1007D0006B01C40ED51ECC15DD0569F06991D701FA
:1007E000ED91FC910190F081E02DC7010995F3CFC7
:1007F000642F0E944803C801DF91CF911F910F9190
:10080000FF90EF90DF90CF900895CF93DF931F92EA
:10081000CDB7DEB7698320918B012223F9F02091B7
:10082000B101203258F021E030E0FC013383228313
:1008300090E080E00F90DF91CF9108958091B20118
:10084000E82FF0E0E457FE4F998190838F5F80930B
:10085000B2018093B10181E090E0ECCF61E0CE0184
:1008600001960E944803F7CFCF92DF92EF92FF925A
:100870000F931F93CF93DF93FC012381222309F46D
:10088000F1C0262F6181609562236083C28181E07F
:1008900080938B01C093AC011092B2011092B10110
:1008A0008DEB92E00E940504D091B10121E0D1329C
:1008B00008F09AC00E94F0016B017C018091D9017F
:1008C00081116CC082E08093D90181E08093D801CE
:1008D0008FEF8093D7011092D601D093D501ACE869
:1008E000B1E0E3EBF1E080E0D81394C01092D401C2
:1008F0008091D401CC0FC82BC093D4018091D30137
:10090000813009F08BC01092D3010E94F0016B017D
:100910007C018091D4018093BB008091DB01909198
:10092000DC01A091DD01B091DE01892B8A2B8B2B9C
:10093000A1F00E94F0010091DB011091DC012091F7
:10094000DD013091DE016C197D098E099F090617C2
:1009500017072807390708F442C08091BC0083FDBF
:10096000D8CF85EC8093BC000E94F0016B017C0124
:100970008091D901823009F453C08091D70120E0E1
:100980008F3F91F18091D70122E0803269F180910F
:10099000D70124E0803341F523E026C08091DB01BC
:1009A0009091DC01A091DD01B091DE01892B8A2BB1
:1009B0008B2B09F483CF0E94F0010091DB01109191
:1009C000DC012091DD013091DE016C197D098E0979
:1009D0009F09061717072807390708F06FCF80917E
:1009E000DA010E948D0325E01092B2011092B1014C
:1009F00010928B0130E081E090E0232B11F090E029
:100A000080E0DF91CF911F910F91FF90EF90DF90E9
:100A1000CF9008959D9191938F5F66CF85EEA2CF81
:100A20008091DB019091DC01A091DD01B091DE01AC
:100A3000892B8A2B8B2B09F49BCF0E94F00100910C
:100A4000DB011091DC012091DD013091DE016C1998
:100A50007D098E099F09061717072807390708F02F
:100A600087CFBDCF30E020E0C6CFEF92FF920F934B
:100A70001F93CF938C01FC0184E0C0E0262F30E06F
:100A800060FF02C09589C92BB901759567958150A2
:100A900031968111F3CF413011F4F8014489F80106
:100AA0006585C62BC42B7801FEE0EF0EF11CF80122
:100AB00062896C2BC7010E943404F8016289609539
:100AC0006C23C701CF911F910F91FF90EF900C9471
:100AD00034040F931F93CF93DF93062F0F70423090
:100AE00041F440E0602FDF91CF911F910F910C9462
:100AF0003505142FEC0170E084E0759567958A95B3
:100B0000E1F7CE010E943505412F602FCE01EBCFDA
:100B1000FC0184858823A1F02185328521153105CA
:100B200021F4611107C0158606C021303105D9F7BF
:100B30006111F9CF85876585CF010E960C94340439
:100B4000089590E080E00895FC0180818C3088F465
:100B500062507109660F771F2FB7F89490E0FC017F
:100B6000EE0FFF1FE80FF91FE753FD4F72836183FC
:100B70002FBF0895CF93DF93DC018C918C3008F068
:100B80006DC0CB01FB01E656FF4F24918A579F4F62
:100B9000FC018491882399F090E0880F991FFC0153
:100BA000E859FF4FC591D491FC01EE58FF4F859154
:100BB00094918FB7F894E881E22BE8838FBF8C91F2
:100BC000282F30E0F901EE0FFF1FE20FF31FE7536C
:100BD000FD4F962F9F736081607C692B6083119617
:100BE0001C92119712961C9212972CE0622F0E9471
:100BF000DE0D829FB001112430E020E0AB01420FF6
:100C0000531FFA01EE0FFF1FE40FF51FE753FD4FCF
:100C1000908196FD16C02F5F3F4F2C30310571F744
:100C200081110FC01092800082E0809381001092A9
:100C3000850010928400B19A80916F008260809349
:100C40006F00EC918E2F90E0FC01EE0FFF1FE80F7C
:100C5000F91FE753FD4F8081806480838C91DF9181
:100C6000CF910895CF93C82F61E00E94C2018BEC11
:100C700097E00197F1F760E08C2F0E94C201CE50FF
:100C8000C064C0937C0080917A00806480937A0075
:100C900080917A0086FDFCCF8091780020917900C8
:100CA000322F282F81E0243831400CF480E0CF919E
:100CB0000895CF93DF93EB01BC0181EF92E00E9496
:100CC000A405BE018EEE92E00E94A40564E170E0EE
:100CD00080E090E0DF91CF910C9415026AEA75E014
:100CE0008EE096E00C9459066EE076E08EE096E099
:100CF0000E94590660E679E080E090E00C941502CD
:100D00000E94F00D4F925F926F927F928F929F920E
:100D1000AF92BF92EF92FF920F931F93CF93DF9307
:100D2000EC01062FF42EE22E8B85888B1092E001C9
:100D30001092DF011092B2011092B1010E946F0374
:100D40008BE592E09093B0018093AF018CE592E047
:100D50009093AE018093AD0118890E94F0014B0180
:100D60005C018091D901811164C081E08093D90137
:100D70008093D8019FEF9093D7011092D6011092E3
:100D8000D5018093D4018091D401110F182B1093B9
:100D9000D4018091D301813009F09DC01092D3011C
:100DA0000E94F0014B015C018091D4018093BB0053
:100DB0008091DB019091DC01A091DD01B091DE0119
:100DC000892B8A2B8B2BA1F00E94F0014090DB0134
:100DD0005090DC016090DD017090DE0168197909A6
:100DE0008A099B09461657066806790608F442C028
:100DF0008091BC0083FDD8CF85EC8093BC000E941D
:100E0000F0014B015C018091D901813009F465C08A
:100E10008091D601811183C08091D601E3EBF1E08E
:100E2000A1EEB1E090E0981751F121912D939F5FD1
:100E3000FACF8091DB019091DC01A091DD01B091AE
:100E4000DE01892B8A2B8B2B09F48BCF0E94F001BA
:100E50004090DB015090DC016090DD017090DE017C
:100E6000681979098A099B094616570668067906A2
:100E700008F077CF8091DA010E948D0380E0109214
:100E8000E0018093DF0191E0811101C090E0998B36
:100E90008DEB92E00E94BE038E878989882339F00A
:100EA0001F861C8260E0CE010E960E9434042E2D17
:100EB0004F2D602FCE01DF91CF911F910F91FF90A9
:100EC000EF90BF90AF909F908F907F906F905F90CA
:100ED0004F900C94BA0285EE90CF8091DB019091F7
:100EE000DC01A091DD01B091DE01892B8A2B8B2BD7
:100EF00009F489CF0E94F0014090DB015090DC01A1
:100F00006090DD017090DE01681979098A099B09FA
:100F1000461657066806790608F075CFABCF81E014
:100F20007DCF85ED8093BC008091DB019091DC0149
:100F3000A091DD01B091DE010796A11DB11D23E056
:100F4000B695A795979587952A95D1F72091BC00DE
:100F500024FD03C01092D90108954091DB01509106
:100F6000DC016091DD017091DE01452B462B472BA2
:100F700069F30097A105B10541F025E32A95F1F742
:100F800000000197A109B109E1CF8091DA010C9429
:100F90008D031F920F920FB60F9211242F933F9340
:100FA0004F935F936F937F938F939F93AF93BF9371
:100FB000EF93FF9380E292E00E940A01FF91EF918C
:100FC000BF91AF919F918F917F916F915F914F9161
:100FD0003F912F910F900FBE0F901F9018951F9269
:100FE0000F920FB60F9211242F938F939F93EF932D
:100FF000FF93E0913002F09131028081E09136025E
:10100000F091370282FD1BC09081809139028F5F81
:101010008F7320913A02821741F0E0913902F0E09B
:10102000E05EFD4F958F80933902FF91EF919F9184
:101030008F912F910F900FBE0F901F901895808168
:10104000F4CF1F920F920FB60F9211242F933F935C
:101050008F939F93AF93BF93809106029091070265
:10106000A0910802B09109023091010223E0230F00
:101070002D3758F50196A11DB11D209301028093D3
:10108000060290930702A0930802B0930902809190
:10109000020290910302A0910402B0910502019610
:1010A000A11DB11D8093020290930302A09304023C
:1010B000B0930502BF91AF919F918F913F912F9176
:1010C0000F900FBE0F901F90189526E8230F0296E1
:1010D000A11DB11DD2CF1F920F920FB60F921124F6
:1010E0002F933F934F935F936F937F938F939F9330
:1010F000AF93BF93EF93FF938091B900887F8036C1
:1011000009F44AC0F0F5883209F4A7C018F5803117
:1011100009F49BC0B8F4882309F4F9C0883009F4B5
:1011200094C0FF91EF91BF91AF919F918F917F916B
:101130006F915F914F913F912F910F900FBE0F9044
:101140001F901895883109F488C0803251F7809338
:10115000D70114C0803409F49DC040F48033B9F342
:101160008833F9F68093D70185ECB0C0803509F457
:1011700085C0883509F496C0883499F60E94910795
:10118000D0CF883909F48CC038F5883729F050F46D
:10119000883611F0803729F683E08093D9011092C8
:1011A0008A0157C0883809F47BC0803919F080382B
:1011B00009F0B7CF80918A01803208F071C0E091C8
:1011C0008A0181E08E0F80938A018091BB00F0E05C
:1011D000E659FE4F80833DC0803B39F0E0F4803A11
:1011E00009F479C0883A09F09CCF84E08093D90152
:1011F0001092690110926801E091AF01F091B00185
:1012000009958091680181110FC081E08093680188
:101210001092480109C0803C09F4A6CF883C09F42B
:10122000A3CF883B09F07DCFE091690181E08E0F6B
:1012300080936901F0E0E85BFE4F80818093BB0002
:10124000909169018091680129C08091D4018093B7
:10125000BB0085EC8093BC0064CF9091D601809157
:10126000D501981758F5E091D60181E08E0F809353
:10127000D601F0E0ED54FE4F8081E9CFE091D60138
:1012800081E08E0F8093D6018091BB00F0E0ED5499
:10129000FE4F80839091D6018091D5019817C8F2B6
:1012A00085E8D8CFE091D60181E08E0F8093D601FA
:1012B0008091BB00F0E0ED54FE4F80838091D80117
:1012C00081115CCF81E08093D30184EA8093BC00DC
:1012D0001092D90126CF85EC8093BC001092D901E1
:1012E00080918A01803230F4E0918A01F0E0E65981
:1012F000FE4F108260918A0170E0E091AD01F091A3
:10130000AE018AE691E0099510928A010ACF109207
:10131000D70134CF1F920F920FB60F9211242F9343
:101320003F934F935F936F937F938F939F93AF936D
:10133000BF93CF93DF93EF93FF9380914601C091CA
:10134000ED02D0E087FF24C0109285001092840047
:10135000809146018F5F8093460180914601082E5F
:10136000000C990B8C179D0724F4809146018C305A
:10137000C4F18091840090918500049680349C494A
:1013800008F47AC08091840090918500049676C01C
:1013900080914601082E000C990B8C179D07C4F60E
:1013A000E09146018E2FEE0F990BFC01EE0FFF1F0F
:1013B000E80FF91FE753FD4F808186FFC9CFE09109
:1013C00046018E2FEE0F990BFC01EE0FFF1FE80F69
:1013D000F91FE753FD4F808160E08F730E94C201C7
:1013E000B7CF2091840030918500E09146018E2F87
:1013F000EE0F990BFC01EE0FFF1FE80FF91FE753EB
:10140000FD4F81819281820F931F90938900809379
:101410008800E09146018E2FEE0F990BFC01EE0F34
:10142000FF1FE80FF91FE753FD4F808186FF11C0B2
:10143000E09146018E2FEE0F990BFC01EE0FFF1F7E
:10144000E80FF91FE753FD4F808161E08F730E9421
:10145000C201FF91EF91DF91CF91BF91AF919F9129
:101460008F917F916F915F914F913F912F910F904D
:101470000FBE0F901F90189580E49CE9909389000F
:10148000809388008FEF80934601E3CFCF93109233
:1014900023021092220288EE93E0A0E0B0E0809355
:1014A000240290932502A0932602B093270222E102
:1014B00031E0309321022093200225EC30E030937C
:1014C0002D0220932C0224EC30E030932F02209345
:1014D0002E0220EC30E0309331022093300221ECD8
:1014E00030E0309333022093320222EC30E030932C
:1014F00035022093340226EC30E0309337022093FB
:1015000036021092390210923A0210923B02109267
:101510003C021092C0021092BF028093C1029093CD
:10152000C202A093C302B093C40284E291E09093FC
:10153000BE028093BD021092F7021092F60286E37B
:1015400091E09093F5028093F40210920403CFEFA0
:10155000C0930303109202031092050387E2809365
:10156000FF0210920003109201031092FE021092EB
:10157000FD0284E08093060382E08093070381E00C
:101580008093080380E18093090380E280930A033B
:1015900080E480930B0380E880930C0350E040E0EC
:1015A00063E084EF92E00E9447028091ED028C306C
:1015B00050F591E0980F9093ED028093F10290E046
:1015C000FC01EE0FFF1FE80FF91FE753FD4F88EBFB
:1015D0009BE0928381838091ED028C30B8F491E09E
:1015E000980F9093ED028093EE0290E0FC01EE0FD5
:1015F000FF1FE80FF91FE753FD4F88EB9BE0928335
:101600008183CF910895C093F102E5CF8FEF80934E
:10161000EE02F7CF789484B5826084BD84B5816092
:1016200084BD85B5826085BD85B5816085BD8091AD
:101630006E00816080936E00109281008091810025
:10164000826080938100809181008160809381001D
:10165000809180008160809380008091B1008460DF
:101660008093B1008091B00081608093B000809140
:101670007A00846080937A0080917A0082608093FF
:101680007A0080917A00816080937A0080917A005C
:10169000806880937A001092C100E0913002F0914E
:1016A000310282E08083E0912C02F0912D021082C1
:1016B000E0912E02F0912F028FEC8083109238027D
:1016C000E0913402F091350286E08083E0913202AD
:1016D000F0913302808180618083E0913202F09149
:1016E0003302808188608083E0913202F09133027E
:1016F000808180688083E0913202F09133028081A2
:101700008F7D808366E070E081EF92E00E94BA05F1
:1017100065E070E08EEE92E00E94BA056CED75E037
:101720008CED95E00E94590620E042E060E184EFF4
:1017300092E00E94820684EF92E00E94B20280E072
:101740000E94700267E584EF92E00E945D0261E40E
:1017500084EF92E00E945D0269E484EF92E00E94CF
:101760005D0264E584EF92E00E945D0269E484EF2B
:1017700092E00E945D026EE484EF92E00E945D02BE
:1017800067E484EF92E00E945D026EE284EF92E0F3
:101790000E945D026EE284EF92E00E945D026EE2C2
:1017A00084EF92E00E945D022CE9222E20E0322E8E
:1017B00038E8432E30E0532EC3E7D0E002E112E0D8
:1017C0004BE9E42EF12C50E0652E50E0752E62E0DE
:1017D000C62ED12CE0EBF0E08491F101A490F2014F
:1017E000B490BB2019F181110E949901EB2DF0E01A
:1017F000EE0FFF1FE458FF4FA591B4918C91A822E2
:10180000A9F084EF92E00E94B20280911E029091B2
:101810001F02019690931F0280931E020E946E0683
:1018200068EC70E080E090E00E94150280911E025A
:1018300080FFBFC180911D02811116C02FB7F8949F
:101840008091060290910702A0910802B0910902CE
:101850002FBF8093190290931A02A0931B02B0939A
:101860001C0281E080931D028FB7F89480900602DD
:1018700090900702A0900802B09009028FBF80915B
:10188000190290911A02A0911B02B0911C02881AB1
:10189000990AAA0ABB0A8092120290921302A0929D
:1018A0001402B09215028EE00E943206882309F4D9
:1018B0004FC08FE00E943206882309F449C080E1BE
:1018C0000E943206882309F443C00E946E066AEF24
:1018D00070E080E090E00E9415028EE00E943206E7
:1018E0008111ACC08EE00E9432068111C6C08FE02B
:1018F0000E943206882309F4C0C080E10E943206AB
:101900008111BBC0A0900401B09005018091180224
:10191000882309F4D9C01A141B040CF4D5C0A09074
:101920001602B0901702F2E0AF16B1040CF0B7C087
:101930000E946E0664E670E080E090E00E9415026E
:101940008FEFA81AB80AB0921702A092160295C09B
:101950008EE00E943206882309F4D2C08EE00E94F5
:101960003206882309F4E3C08EE00E94320681111A
:10197000EBC08EE00E94320681117FC080E10E94A0
:10198000320681117AC00E946E06FFEE8F16F2E0D9
:101990009F06A104B10480F180910201909103019E
:1019A00097FD2AC08091040190910501873191052E
:1019B00009F0D4C02FB7F8948091060290910702E5
:1019C000A0910802B09109022FBF80931902909351
:1019D0001A02A0931B02B0931C0280910201909105
:1019E0000301FC01E65FFD4F20812C5F20830197FE
:1019F000909303018093020168E484EF92E00E94D7
:101A00006802CE010197F1F78AE0A82E82E0B82E95
:101A1000F50161915F0184EF92E00E945D02C701D0
:101A20000197F1F70A151B0599F781E00E947002F2
:101A300061E084EF92E00E945D021FC08FE00E948F
:101A40003206882309F44ECF80E10E9432068823B3
:101A500009F448CF809104019091050118161906E8
:101A6000C4F0D0921F02C0921E0261E087E00E9483
:101A7000C20161E088E00E94C2016114710409F4AE
:101A8000A9CE0E94F600882309F4A4CE0E9400008B
:101A9000A1CE0E94740681E080931802EECF0E94CE
:101AA0006E0664E670E080E090E00E9415026AEA4B
:101AB00075E08AEA95E00E9459066CE474E080E0E3
:101AC00090E00E941502D9CF0E946E0664E670E095
:101AD00080E090E00E9415026EE076E08EE096E0F5
:101AE0000E9459066CE474E080E090E00E941502C8
:101AF000E1E0AE1AB108B0920501A0920401BDCF99
:101B00008FE00E943206811129CF80E10E943206C7
:101B1000811124CF0E94740660E476E088E795E0A6
:101B20000E94590664E670E080E090E0CACF80E150
:101B30000E943206882309F417CF6EE076E08EE02B
:101B400096E00E94590699CF80E10E9432068111E9
:101B500010CF6AEA75E08AEA95E0F3CF47970CF078
:101B60004BCF2FB7F8948091060290910702A09175
:101B70000802B09109022FBF8093190290931A02B4
:101B8000A0931B02B0931C02E0910201F0910301AB
:101B90008091000190910101E65FFD4F32E038270E
:101BA0002081230F208301969093010180930001EF
:101BB00023CF6CED75E08CED95E0C3CF991B79E0F8
:101BC00004C0991F961708F0961B881F7A95C9F7CD
:101BD00080950895EE0FFF1F0590F491E02D099474
:101BE00081E090E0F8940C94F50DF894FFCF01009B
:101BF000070017000040145400401050000000007F
:101C00002C018C00B9007901EA00C800DC0000005A
:101C100000000504D803A105AE03D103BE03AF0342
:101C2000000000005D028C00A10547038206470208
:041C300088056905B5
:107E0000112484B714BE81FFF0D085E080938100F7
:107E100082E08093C00088E18093C10086E0809377
:107E2000C20080E18093C4008EE0C9D0259A86E02C
:107E300020E33CEF91E0309385002093840096BBD3
:107E4000B09BFECF1D9AA8958150A9F7CC24DD24C4
:107E500088248394B5E0AB2EA1E19A2EF3E0BF2EE7
:107E6000A2D0813461F49FD0082FAFD0023811F036
:107E7000013811F484E001C083E08DD089C08234E0
:107E800011F484E103C0853419F485E0A6D080C0E4
:107E9000853579F488D0E82EFF2485D0082F10E0AE
:107EA000102F00270E291F29000F111F8ED06801E7
:107EB0006FC0863521F484E090D080E0DECF843638
:107EC00009F040C070D06FD0082F6DD080E0C81688
:107ED00080E7D80618F4F601B7BEE895C0E0D1E017
:107EE00062D089930C17E1F7F0E0CF16F0E7DF06D8
:107EF00018F0F601B7BEE89568D007B600FCFDCFD4
:107F0000A601A0E0B1E02C9130E011968C91119780
:107F100090E0982F8827822B932B1296FA010C0160
:107F200087BEE89511244E5F5F4FF1E0A038BF0790
:107F300051F7F601A7BEE89507B600FCFDCF97BE46
:107F4000E89526C08437B1F42ED02DD0F82E2BD052
:107F50003CD0F601EF2C8F010F5F1F4F84911BD097
:107F6000EA94F801C1F70894C11CD11CFA94CF0C13
:107F7000D11C0EC0853739F428D08EE10CD085E9AC
:107F80000AD08FE07ACF813511F488E018D01DD067
:107F900080E101D065CF982F8091C00085FFFCCF94
:107FA0009093C60008958091C00087FFFCCF809118
:107FB000C00084FD01C0A8958091C6000895E0E648
:107FC000F0E098E1908380830895EDDF803219F02E
:107FD00088E0F5DFFFCF84E1DECF1F93182FE3DFCA
:107FE0001150E9F7F2DF1F91089580E0E8DFEE27F6
:047FF000FF270994CA
:027FFE00040479
:00000001FF
